{
  "contractName": "MultiSigFactory",
  "abi": [
    {
      "anonymous": false,
      "inputs": [
        {
          "indexed": false,
          "internalType": "address",
          "name": "createdBy",
          "type": "address"
        },
        {
          "indexed": false,
          "internalType": "address",
          "name": "newWalletContractAddress",
          "type": "address"
        },
        {
          "indexed": false,
          "internalType": "uint256",
          "name": "timeOfTransaction",
          "type": "uint256"
        }
      ],
      "name": "WalletCreated",
      "type": "event"
    },
    {
      "inputs": [],
      "name": "createNewWallet",
      "outputs": [],
      "stateMutability": "nonpayable",
      "type": "function"
    },
    {
      "inputs": [
        {
          "internalType": "address",
          "name": "owner",
          "type": "address"
        },
        {
          "internalType": "address",
          "name": "walletAddress",
          "type": "address"
        }
      ],
      "name": "addNewWalletInstance",
      "outputs": [],
      "stateMutability": "nonpayable",
      "type": "function"
    },
    {
      "inputs": [
        {
          "internalType": "address",
          "name": "_owner",
          "type": "address"
        },
        {
          "internalType": "address",
          "name": "_walletAddress",
          "type": "address"
        }
      ],
      "name": "removeNewWalletInstance",
      "outputs": [],
      "stateMutability": "nonpayable",
      "type": "function"
    },
    {
      "inputs": [
        {
          "internalType": "address",
          "name": "owner",
          "type": "address"
        }
      ],
      "name": "getOwnerWallets",
      "outputs": [
        {
          "components": [
            {
              "internalType": "address",
              "name": "walletAddress",
              "type": "address"
            }
          ],
          "internalType": "struct MultiSigFactory.UserWallets[]",
          "name": "",
          "type": "tuple[]"
        }
      ],
      "stateMutability": "view",
      "type": "function",
      "constant": true
    }
  ],
  "bytecode": "0x608060405234801561001057600080fd5b50615ad6806100206000396000f3fe60806040523480156200001157600080fd5b5060043610620000525760003560e01c8063178f0d1c1462000057578063269ae8b11462000063578063628bf6911462000083578063bba4c19114620000a3575b600080fd5b62000061620000d9565b005b6200008160048036038101906200007b9190620006f4565b62000284565b005b620000a160048036038101906200009b9190620006f4565b62000360565b005b620000c16004803603810190620000bb9190620006c2565b620005ab565b604051620000d0919062000874565b60405180910390f35b6000604051620000e9906200069d565b604051809103906000f08015801562000106573d6000803e3d6000fd5b5090506001819080600181540180825580915050600190039060005260206000200160009091909190916101000a81548173ffffffffffffffffffffffffffffffffffffffff021916908373ffffffffffffffffffffffffffffffffffffffff1602179055506000600260003373ffffffffffffffffffffffffffffffffffffffff1673ffffffffffffffffffffffffffffffffffffffff16815260200190815260200160002090508060405180602001604052808473ffffffffffffffffffffffffffffffffffffffff168152509080600181540180825580915050600190039060005260206000200160009091909190915060008201518160000160006101000a81548173ffffffffffffffffffffffffffffffffffffffff021916908373ffffffffffffffffffffffffffffffffffffffff16021790555050507f4459976dae5d173eda0ac09c39b840bed814c9d1e490e8b9ba23148e4b19a837338342604051620002789392919062000837565b60405180910390a15050565b6000600260008473ffffffffffffffffffffffffffffffffffffffff1673ffffffffffffffffffffffffffffffffffffffff16815260200190815260200160002090508060405180602001604052808473ffffffffffffffffffffffffffffffffffffffff168152509080600181540180825580915050600190039060005260206000200160009091909190915060008201518160000160006101000a81548173ffffffffffffffffffffffffffffffffffffffff021916908373ffffffffffffffffffffffffffffffffffffffff1602179055505050505050565b6000600260008473ffffffffffffffffffffffffffffffffffffffff1673ffffffffffffffffffffffffffffffffffffffff168152602001908152602001600020905060008080600090505b838054905081101562000454578473ffffffffffffffffffffffffffffffffffffffff16848281548110620003e657620003e562000a29565b5b9060005260206000200160000160009054906101000a900473ffffffffffffffffffffffffffffffffffffffff1673ffffffffffffffffffffffffffffffffffffffff1614156200043e576001925080915062000454565b80806200044b906200097d565b915050620003ac565b508162000498576040517f08c379a00000000000000000000000000000000000000000000000000000000081526004016200048f9062000898565b60405180910390fd5b8260018480549050620004ac919062000904565b81548110620004c057620004bf62000a29565b5b90600052602060002001838281548110620004e057620004df62000a29565b5b906000526020600020016000820160009054906101000a900473ffffffffffffffffffffffffffffffffffffffff168160000160006101000a81548173ffffffffffffffffffffffffffffffffffffffff021916908373ffffffffffffffffffffffffffffffffffffffff16021790555090505082805480620005685762000567620009fa565b5b60019003818190600052602060002001600080820160006101000a81549073ffffffffffffffffffffffffffffffffffffffff0219169055505090555050505050565b6060600260008373ffffffffffffffffffffffffffffffffffffffff1673ffffffffffffffffffffffffffffffffffffffff168152602001908152602001600020805480602002602001604051908101604052809291908181526020016000905b8282101562000692578382906000526020600020016040518060200160405290816000820160009054906101000a900473ffffffffffffffffffffffffffffffffffffffff1673ffffffffffffffffffffffffffffffffffffffff1673ffffffffffffffffffffffffffffffffffffffff1681525050815260200190600101906200060c565b505050509050919050565b614fda8062000ac783390190565b600081359050620006bc8162000aac565b92915050565b600060208284031215620006db57620006da62000a58565b5b6000620006eb84828501620006ab565b91505092915050565b600080604083850312156200070e576200070d62000a58565b5b60006200071e85828601620006ab565b92505060206200073185828601620006ab565b9150509250929050565b600062000749838362000808565b60208301905092915050565b62000760816200093f565b82525050565b62000771816200093f565b82525050565b60006200078482620008ca565b620007908185620008e2565b93506200079d83620008ba565b8060005b83811015620007d4578151620007b888826200073b565b9750620007c583620008d5565b925050600181019050620007a1565b5085935050505092915050565b6000620007f0602c83620008f3565b9150620007fd8262000a5d565b604082019050919050565b60208201600082015162000820600085018262000755565b50505050565b620008318162000973565b82525050565b60006060820190506200084e600083018662000766565b6200085d602083018562000766565b6200086c604083018462000826565b949350505050565b6000602082019050818103600083015262000890818462000777565b905092915050565b60006020820190508181036000830152620008b381620007e1565b9050919050565b6000819050602082019050919050565b600081519050919050565b6000602082019050919050565b600082825260208201905092915050565b600082825260208201905092915050565b6000620009118262000973565b91506200091e8362000973565b925082821015620009345762000933620009cb565b5b828203905092915050565b60006200094c8262000953565b9050919050565b600073ffffffffffffffffffffffffffffffffffffffff82169050919050565b6000819050919050565b60006200098a8262000973565b91507fffffffffffffffffffffffffffffffffffffffffffffffffffffffffffffffff821415620009c057620009bf620009cb565b5b600182019050919050565b7f4e487b7100000000000000000000000000000000000000000000000000000000600052601160045260246000fd5b7f4e487b7100000000000000000000000000000000000000000000000000000000600052603160045260246000fd5b7f4e487b7100000000000000000000000000000000000000000000000000000000600052603260045260246000fd5b600080fd5b7f746865206f776e65727320646f6573206e6f74206f776e207468652077616c6c60008201527f6574207370656369666965640000000000000000000000000000000000000000602082015250565b62000ab7816200093f565b811462000ac357600080fd5b5056fe60806040526000600355600060045560006005553480156200002057600080fd5b50336000806101000a81548173ffffffffffffffffffffffffffffffffffffffff021916908373ffffffffffffffffffffffffffffffffffffffff160217905550600160008054906101000a900473ffffffffffffffffffffffffffffffffffffffff169080600181540180825580915050600190039060005260206000200160009091909190916101000a81548173ffffffffffffffffffffffffffffffffffffffff021916908373ffffffffffffffffffffffffffffffffffffffff16021790555060018080549050620000f7919062000223565b600281905550600680600181540180825580915050600190039060005260206000200160006040518060400160405280600381526020017f4554480000000000000000000000000000000000000000000000000000000000815250909190915090805190602001906200016c92919062000173565b50620002fc565b828054620001819062000268565b90600052602060002090601f016020900481019282620001a55760008555620001f1565b82601f10620001c057805160ff1916838001178555620001f1565b82800160010185558215620001f1579182015b82811115620001f0578251825591602001919060010190620001d3565b5b50905062000200919062000204565b5090565b5b808211156200021f57600081600090555060010162000205565b5090565b600062000230826200025e565b91506200023d836200025e565b9250828210156200025357620002526200029e565b5b828203905092915050565b6000819050919050565b600060028204905060018216806200028157607f821691505b60208210811415620002985762000297620002cd565b5b50919050565b7f4e487b7100000000000000000000000000000000000000000000000000000000600052601160045260246000fd5b7f4e487b7100000000000000000000000000000000000000000000000000000000600052602260045260246000fd5b614cce806200030c6000396000f3fe6080604052600436106100f35760003560e01c80638d21754a1161008a578063a04ef14511610059578063a04ef14514610307578063a4e360c814610332578063b0b22c2c1461036f578063dec3eea514610398576100f3565b80638d21754a1461026e5780638e27d719146102995780638f031443146102b55780639464f42b146102de576100f3565b80634c7927a9116100c65780634c7927a9146101b25780635f89aacb146101ef5780637278a1fa146102185780638c89a0ad14610243576100f3565b8063273cbaa0146100f857806330b39a62146101235780633a51d2461461014c5780634071e6d914610189575b600080fd5b34801561010457600080fd5b5061010d6103c1565b60405161011a91906141ef565b60405180910390f35b34801561012f57600080fd5b5061014a60048036038101906101459190613aa1565b61049a565b005b34801561015857600080fd5b50610173600480360381019061016e9190613944565b61091e565b60405161018091906144f4565b60405180910390f35b34801561019557600080fd5b506101b060048036038101906101ab91906138c4565b610a81565b005b3480156101be57600080fd5b506101d960048036038101906101d49190613944565b610db5565b6040516101e691906144f4565b60405180910390f35b3480156101fb57600080fd5b5061021660048036038101906102119190613afd565b610f18565b005b34801561022457600080fd5b5061022d6115e0565b60405161023a91906144f4565b60405180910390f35b34801561024f57600080fd5b506102586115ea565b60405161026591906144f4565b60405180910390f35b34801561027a57600080fd5b506102836115f2565b60405161029091906141cd565b60405180910390f35b6102b360048036038101906102ae9190613aa1565b611680565b005b3480156102c157600080fd5b506102dc60048036038101906102d791906138c4565b611b66565b005b3480156102ea57600080fd5b5061030560048036038101906103009190613a32565b611dec565b005b34801561031357600080fd5b5061031c612378565b6040516103299190614211565b60405180910390f35b34801561033e57600080fd5b5061035960048036038101906103549190613afd565b61253d565b6040516103669190614233565b60405180910390f35b34801561037b57600080fd5b50610396600480360381019061039191906139d6565b6125a4565b005b3480156103a457600080fd5b506103bf60048036038101906103ba9190613afd565b6128f5565b005b60606006805480602002602001604051908101604052809291908181526020016000905b82821015610491578382906000526020600020018054610404906147d6565b80601f0160208091040260200160405190810160405280929190818152602001828054610430906147d6565b801561047d5780601f106104525761010080835404028352916020019161047d565b820191906000526020600020905b81548152906001019060200180831161046057829003601f168201915b5050505050815260200190600101906103e5565b50505050905090565b6000805b600180549050811015610539573373ffffffffffffffffffffffffffffffffffffffff16600182815481106104d6576104d561490f565b5b9060005260206000200160009054906101000a900473ffffffffffffffffffffffffffffffffffffffff1673ffffffffffffffffffffffffffffffffffffffff1614156105265760019150610539565b808061053190614839565b91505061049e565b506001151581151514610581576040517f08c379a0000000000000000000000000000000000000000000000000000000008152600401610578906144d4565b60405180910390fd5b826040518060400160405280600381526020017f45544800000000000000000000000000000000000000000000000000000000008152508051906020012081805190602001201461067e57600073ffffffffffffffffffffffffffffffffffffffff16600a826040516105f491906140a3565b908152602001604051809103902060010160009054906101000a900473ffffffffffffffffffffffffffffffffffffffff1673ffffffffffffffffffffffffffffffffffffffff16141561067d576040517f08c379a000000000000000000000000000000000000000000000000000000000815260040161067490614414565b60405180910390fd5b5b82600860003373ffffffffffffffffffffffffffffffffffffffff1673ffffffffffffffffffffffffffffffffffffffff168152602001908152602001600020856040516106cc91906140a3565b90815260200160405180910390205410156106e657600080fd5b82600860003373ffffffffffffffffffffffffffffffffffffffff1673ffffffffffffffffffffffffffffffffffffffff1681526020019081526020016000208560405161073491906140a3565b9081526020016040518091039020600082825461075191906146be565b925050819055506040518060400160405280600381526020017f455448000000000000000000000000000000000000000000000000000000000081525080519060200120848051906020012014156107ef573373ffffffffffffffffffffffffffffffffffffffff166108fc849081150290604051600060405180830381858888f193505050501580156107e9573d6000803e3d6000fd5b506108bf565b600a846040516107ff91906140a3565b908152602001604051809103902060010160009054906101000a900473ffffffffffffffffffffffffffffffffffffffff1673ffffffffffffffffffffffffffffffffffffffff1663a9059cbb33856040518363ffffffff1660e01b815260040161086b9291906141a4565b602060405180830381600087803b15801561088557600080fd5b505af1158015610899573d6000803e3d6000fd5b505050506040513d601f19601f820116820180604052508101906108bd9190613917565b505b7f6a647eacc9e98792655e8dba08e3167440b93e02ef76e8e3330fa10a27b4ecbf843385600454426040516108f895949392919061433a565b60405180910390a16004600081548092919061091390614839565b919050555050505050565b6000816040518060400160405280600381526020017f455448000000000000000000000000000000000000000000000000000000000081525080519060200120818051906020012014610a1d57600073ffffffffffffffffffffffffffffffffffffffff16600a8260405161099391906140a3565b908152602001604051809103902060010160009054906101000a900473ffffffffffffffffffffffffffffffffffffffff1673ffffffffffffffffffffffffffffffffffffffff161415610a1c576040517f08c379a0000000000000000000000000000000000000000000000000000000008152600401610a1390614414565b60405180910390fd5b5b600860003373ffffffffffffffffffffffffffffffffffffffff1673ffffffffffffffffffffffffffffffffffffffff16815260200190815260200160002083604051610a6a91906140a3565b908152602001604051809103902054915050919050565b6000805b600180549050811015610b20573373ffffffffffffffffffffffffffffffffffffffff1660018281548110610abd57610abc61490f565b5b9060005260206000200160009054906101000a900473ffffffffffffffffffffffffffffffffffffffff1673ffffffffffffffffffffffffffffffffffffffff161415610b0d5760019150610b20565b8080610b1890614839565b915050610a85565b506001151581151514610b68576040517f08c379a0000000000000000000000000000000000000000000000000000000008152600401610b5f906144d4565b60405180910390fd5b60008080600090505b600180549050811015610c0f578673ffffffffffffffffffffffffffffffffffffffff1660018281548110610ba957610ba861490f565b5b9060005260206000200160009054906101000a900473ffffffffffffffffffffffffffffffffffffffff1673ffffffffffffffffffffffffffffffffffffffff161415610bfc5760019250809150610c0f565b8080610c0790614839565b915050610b71565b506001151582151514610c57576040517f08c379a0000000000000000000000000000000000000000000000000000000008152600401610c4e90614434565b60405180910390fd5b6001808080549050610c6991906146be565b81548110610c7a57610c7961490f565b5b9060005260206000200160009054906101000a900473ffffffffffffffffffffffffffffffffffffffff1660018281548110610cb957610cb861490f565b5b9060005260206000200160006101000a81548173ffffffffffffffffffffffffffffffffffffffff021916908373ffffffffffffffffffffffffffffffffffffffff1602179055506001805480610d1357610d126148e0565b5b6001900381819060005260206000200160006101000a81549073ffffffffffffffffffffffffffffffffffffffff0219169055905560018080549050610d5991906146be565b6002819055507fd1f329271e4a98b0181a7d91618a0a5de6f42a1aaf4c1362493d829eaf405a8a338742604051610d9293929190614121565b60405180910390a1610da385612e5c565b610dad8685612ea0565b505050505050565b6000816040518060400160405280600381526020017f455448000000000000000000000000000000000000000000000000000000000081525080519060200120818051906020012014610eb457600073ffffffffffffffffffffffffffffffffffffffff16600a82604051610e2a91906140a3565b908152602001604051809103902060010160009054906101000a900473ffffffffffffffffffffffffffffffffffffffff1673ffffffffffffffffffffffffffffffffffffffff161415610eb3576040517f08c379a0000000000000000000000000000000000000000000000000000000008152600401610eaa90614414565b60405180910390fd5b5b600860003073ffffffffffffffffffffffffffffffffffffffff1673ffffffffffffffffffffffffffffffffffffffff16815260200190815260200160002083604051610f0191906140a3565b908152602001604051809103902054915050919050565b6000805b600180549050811015610fb7573373ffffffffffffffffffffffffffffffffffffffff1660018281548110610f5457610f5361490f565b5b9060005260206000200160009054906101000a900473ffffffffffffffffffffffffffffffffffffffff1673ffffffffffffffffffffffffffffffffffffffff161415610fa45760019150610fb7565b8080610faf90614839565b915050610f1c565b506001151581151514610fff576040517f08c379a0000000000000000000000000000000000000000000000000000000008152600401610ff6906144d4565b60405180910390fd5b6000600b83815481106110155761101461490f565b5b90600052602060002090600702016000018054611031906147d6565b80601f016020809104026020016040519081016040528092919081815260200182805461105d906147d6565b80156110aa5780601f1061107f576101008083540402835291602001916110aa565b820191906000526020600020905b81548152906001019060200180831161108d57829003601f168201915b5050505050905060008060005b600b8054905081101561111b5785600b82815481106110d9576110d861490f565b5b90600052602060002090600702016004015414156110fa576001925061111b565b818061110590614839565b925050808061111390614839565b9150506110b7565b503373ffffffffffffffffffffffffffffffffffffffff16600b82815481106111475761114661490f565b5b906000526020600020906007020160010160009054906101000a900473ffffffffffffffffffffffffffffffffffffffff1673ffffffffffffffffffffffffffffffffffffffff16146111cf576040517f08c379a00000000000000000000000000000000000000000000000000000000081526004016111c690614474565b60405180910390fd5b8161120f576040517f08c379a0000000000000000000000000000000000000000000000000000000008152600401611206906144b4565b60405180910390fd5b600b81815481106112235761122261490f565b5b906000526020600020906007020160030154600860003373ffffffffffffffffffffffffffffffffffffffff1673ffffffffffffffffffffffffffffffffffffffff1681526020019081526020016000208460405161128291906140a3565b9081526020016040518091039020600082825461129f9190614668565b92505081905550600b6001600b805490506112ba91906146be565b815481106112cb576112ca61490f565b5b9060005260206000209060070201600b82815481106112ed576112ec61490f565b5b9060005260206000209060070201600082018160000190805461130f906147d6565b61131a929190613620565b506001820160009054906101000a900473ffffffffffffffffffffffffffffffffffffffff168160010160006101000a81548173ffffffffffffffffffffffffffffffffffffffff021916908373ffffffffffffffffffffffffffffffffffffffff1602179055506002820160009054906101000a900473ffffffffffffffffffffffffffffffffffffffff168160020160006101000a81548173ffffffffffffffffffffffffffffffffffffffff021916908373ffffffffffffffffffffffffffffffffffffffff160217905550600382015481600301556004820154816004015560058201548160050155600682015481600601559050507f88ac4e01306872c0a5f289baf13af804eedb981db2018261cf8afed94bd9e19b8333600b848154811061144b5761144a61490f565b5b906000526020600020906007020160020160009054906101000a900473ffffffffffffffffffffffffffffffffffffffff16600b85815481106114915761149061490f565b5b906000526020600020906007020160030154600b86815481106114b7576114b661490f565b5b906000526020600020906007020160040154600b87815481106114dd576114dc61490f565b5b906000526020600020906007020160050154600b88815481106115035761150261490f565b5b90600052602060002090600702016006015460405161152897969594939291906142c4565b60405180910390a1600b805480611542576115416148e0565b5b60019003818190600052602060002090600702016000808201600061156791906136ad565b6001820160006101000a81549073ffffffffffffffffffffffffffffffffffffffff02191690556002820160006101000a81549073ffffffffffffffffffffffffffffffffffffffff02191690556003820160009055600482016000905560058201600090556006820160009055505090555050505050565b6000600254905090565b600047905090565b6060600180548060200260200160405190810160405280929190818152602001828054801561167657602002820191906000526020600020905b8160009054906101000a900473ffffffffffffffffffffffffffffffffffffffff1673ffffffffffffffffffffffffffffffffffffffff168152602001906001019080831161162c575b5050505050905090565b6000805b60018054905081101561171f573373ffffffffffffffffffffffffffffffffffffffff16600182815481106116bc576116bb61490f565b5b9060005260206000200160009054906101000a900473ffffffffffffffffffffffffffffffffffffffff1673ffffffffffffffffffffffffffffffffffffffff16141561170c576001915061171f565b808061171790614839565b915050611684565b506001151581151514611767576040517f08c379a000000000000000000000000000000000000000000000000000000000815260040161175e906144d4565b60405180910390fd5b826040518060400160405280600381526020017f45544800000000000000000000000000000000000000000000000000000000008152508051906020012081805190602001201461186457600073ffffffffffffffffffffffffffffffffffffffff16600a826040516117da91906140a3565b908152602001604051809103902060010160009054906101000a900473ffffffffffffffffffffffffffffffffffffffff1673ffffffffffffffffffffffffffffffffffffffff161415611863576040517f08c379a000000000000000000000000000000000000000000000000000000000815260040161185a90614414565b60405180910390fd5b5b6000600860003373ffffffffffffffffffffffffffffffffffffffff1673ffffffffffffffffffffffffffffffffffffffff168152602001908152602001600020856040516118b391906140a3565b9081526020016040518091039020541015611903576040517f08c379a00000000000000000000000000000000000000000000000000000000081526004016118fa90614394565b60405180910390fd5b6040518060400160405280600381526020017f455448000000000000000000000000000000000000000000000000000000000081525080519060200120848051906020012014156119c35734600860003373ffffffffffffffffffffffffffffffffffffffff1673ffffffffffffffffffffffffffffffffffffffff16815260200190815260200160002060405161199a906140ba565b908152602001604051809103902060008282546119b79190614668565b92505081905550611b07565b82600860003373ffffffffffffffffffffffffffffffffffffffff1673ffffffffffffffffffffffffffffffffffffffff16815260200190815260200160002085604051611a1191906140a3565b90815260200160405180910390206000828254611a2e9190614668565b92505081905550600a84604051611a4591906140a3565b908152602001604051809103902060010160009054906101000a900473ffffffffffffffffffffffffffffffffffffffff1673ffffffffffffffffffffffffffffffffffffffff166323b872dd3330866040518463ffffffff1660e01b8152600401611ab393929190614121565b602060405180830381600087803b158015611acd57600080fd5b505af1158015611ae1573d6000803e3d6000fd5b505050506040513d601f19601f82011682018060405250810190611b059190613917565b505b7f41751252894a74bd975de630158c4e47bb25c36d9ce7ad90383d86d391d2be1284333460035442604051611b4095949392919061433a565b60405180910390a160036000815480929190611b5b90614839565b919050555050505050565b6000805b600180549050811015611c05573373ffffffffffffffffffffffffffffffffffffffff1660018281548110611ba257611ba161490f565b5b9060005260206000200160009054906101000a900473ffffffffffffffffffffffffffffffffffffffff1673ffffffffffffffffffffffffffffffffffffffff161415611bf25760019150611c05565b8080611bfd90614839565b915050611b6a565b506001151581151514611c4d576040517f08c379a0000000000000000000000000000000000000000000000000000000008152600401611c44906144d4565b60405180910390fd5b60005b600180549050811015611d1d578473ffffffffffffffffffffffffffffffffffffffff1660018281548110611c8857611c8761490f565b5b9060005260206000200160009054906101000a900473ffffffffffffffffffffffffffffffffffffffff1673ffffffffffffffffffffffffffffffffffffffff161415611d0a576040517f08c379a0000000000000000000000000000000000000000000000000000000008152600401611d0190614454565b60405180910390fd5b8080611d1590614839565b915050611c50565b506001849080600181540180825580915050600190039060005260206000200160009091909190916101000a81548173ffffffffffffffffffffffffffffffffffffffff021916908373ffffffffffffffffffffffffffffffffffffffff16021790555060018080549050611d9291906146be565b6002819055507f43abcff3409244ec1056224394af5f818e9a74866f0a11bfee2ad52f68ad6fb9338542604051611dcb93929190614121565b60405180910390a1611ddc83612e5c565b611de68483612f39565b50505050565b6000805b600180549050811015611e8b573373ffffffffffffffffffffffffffffffffffffffff1660018281548110611e2857611e2761490f565b5b9060005260206000200160009054906101000a900473ffffffffffffffffffffffffffffffffffffffff1673ffffffffffffffffffffffffffffffffffffffff161415611e785760019150611e8b565b8080611e8390614839565b915050611df0565b506001151581151514611ed3576040517f08c379a0000000000000000000000000000000000000000000000000000000008152600401611eca906144d4565b60405180910390fd5b836040518060400160405280600381526020017f455448000000000000000000000000000000000000000000000000000000000081525080519060200120818051906020012014611fd057600073ffffffffffffffffffffffffffffffffffffffff16600a82604051611f4691906140a3565b908152602001604051809103902060010160009054906101000a900473ffffffffffffffffffffffffffffffffffffffff1673ffffffffffffffffffffffffffffffffffffffff161415611fcf576040517f08c379a0000000000000000000000000000000000000000000000000000000008152600401611fc690614414565b60405180910390fd5b5b82600860003373ffffffffffffffffffffffffffffffffffffffff1673ffffffffffffffffffffffffffffffffffffffff1681526020019081526020016000208660405161201e91906140a3565b908152602001604051809103902054101561206e576040517f08c379a0000000000000000000000000000000000000000000000000000000008152600401612065906143b4565b60405180910390fd5b60005b60018054905081101561213e578473ffffffffffffffffffffffffffffffffffffffff16600182815481106120a9576120a861490f565b5b9060005260206000200160009054906101000a900473ffffffffffffffffffffffffffffffffffffffff1673ffffffffffffffffffffffffffffffffffffffff16141561212b576040517f08c379a000000000000000000000000000000000000000000000000000000000815260040161212290614494565b60405180910390fd5b808061213690614839565b915050612071565b5082600860003373ffffffffffffffffffffffffffffffffffffffff1673ffffffffffffffffffffffffffffffffffffffff1681526020019081526020016000208660405161218d91906140a3565b908152602001604051809103902060008282546121aa91906146be565b92505081905550600b6040518060e001604052808781526020013373ffffffffffffffffffffffffffffffffffffffff1681526020018673ffffffffffffffffffffffffffffffffffffffff168152602001858152602001600554815260200160008152602001428152509080600181540180825580915050600190039060005260206000209060070201600090919091909150600082015181600001908051906020019061225a9291906136ed565b5060208201518160010160006101000a81548173ffffffffffffffffffffffffffffffffffffffff021916908373ffffffffffffffffffffffffffffffffffffffff16021790555060408201518160020160006101000a81548173ffffffffffffffffffffffffffffffffffffffff021916908373ffffffffffffffffffffffffffffffffffffffff160217905550606082015181600301556080820151816004015560a0820151816005015560c0820151816006015550506005600081548092919061232690614839565b91905055507f9cc5df05955d08828d561f92ad3f6b82c78a55cf7d3dedacffacc4f694faf9be85338686600554600042604051612369979695949392919061424e565b60405180910390a15050505050565b6060600b805480602002602001604051908101604052809291908181526020016000905b8282101561253457838290600052602060002090600702016040518060e00160405290816000820180546123cf906147d6565b80601f01602080910402602001604051908101604052809291908181526020018280546123fb906147d6565b80156124485780601f1061241d57610100808354040283529160200191612448565b820191906000526020600020905b81548152906001019060200180831161242b57829003601f168201915b505050505081526020016001820160009054906101000a900473ffffffffffffffffffffffffffffffffffffffff1673ffffffffffffffffffffffffffffffffffffffff1673ffffffffffffffffffffffffffffffffffffffff1681526020016002820160009054906101000a900473ffffffffffffffffffffffffffffffffffffffff1673ffffffffffffffffffffffffffffffffffffffff1673ffffffffffffffffffffffffffffffffffffffff1681526020016003820154815260200160048201548152602001600582015481526020016006820154815250508152602001906001019061239c565b50505050905090565b6000600960003373ffffffffffffffffffffffffffffffffffffffff1673ffffffffffffffffffffffffffffffffffffffff168152602001908152602001600020600083815260200190815260200160002060009054906101000a900460ff169050919050565b6000805b600180549050811015612643573373ffffffffffffffffffffffffffffffffffffffff16600182815481106125e0576125df61490f565b5b9060005260206000200160009054906101000a900473ffffffffffffffffffffffffffffffffffffffff1673ffffffffffffffffffffffffffffffffffffffff1614156126305760019150612643565b808061263b90614839565b9150506125a8565b50600115158115151461268b576040517f08c379a0000000000000000000000000000000000000000000000000000000008152600401612682906144d4565b60405180910390fd5b60005b60068054905081101561272a578380519060200120600682815481106126b7576126b661490f565b5b906000526020600020016040516126ce919061408c565b60405180910390201415612717576040517f08c379a000000000000000000000000000000000000000000000000000000000815260040161270e906143d4565b60405180910390fd5b808061272290614839565b91505061268e565b5082805190602001208273ffffffffffffffffffffffffffffffffffffffff166395d89b416040518163ffffffff1660e01b815260040160006040518083038186803b15801561277957600080fd5b505afa15801561278d573d6000803e3d6000fd5b505050506040513d6000823e3d601f19601f820116820180604052508101906127b6919061398d565b80519060200120146127c757600080fd5b60405180604001604052808481526020018373ffffffffffffffffffffffffffffffffffffffff16815250600a8460405161280291906140a3565b9081526020016040518091039020600082015181600001908051906020019061282c9291906136ed565b5060208201518160010160006101000a81548173ffffffffffffffffffffffffffffffffffffffff021916908373ffffffffffffffffffffffffffffffffffffffff1602179055509050506006839080600181540180825580915050600190039060005260206000200160009091909190915090805190602001906128b29291906136ed565b507fe6887a88bb2477605d9b68e33f64a263587018a6a232f3b234ba1b78c96b84f2338484426040516128e89493929190614158565b60405180910390a1505050565b6000805b600180549050811015612994573373ffffffffffffffffffffffffffffffffffffffff16600182815481106129315761293061490f565b5b9060005260206000200160009054906101000a900473ffffffffffffffffffffffffffffffffffffffff1673ffffffffffffffffffffffffffffffffffffffff1614156129815760019150612994565b808061298c90614839565b9150506128f9565b5060011515811515146129dc576040517f08c379a00000000000000000000000000000000000000000000000000000000081526004016129d3906144d4565b60405180910390fd5b606060008060005b600b80549050811015612af85785600b8281548110612a0657612a0561490f565b5b9060005260206000209060070201600401541415612ad75760019250600b8281548110612a3657612a3561490f565b5b90600052602060002090600702016000018054612a52906147d6565b80601f0160208091040260200160405190810160405280929190818152602001828054612a7e906147d6565b8015612acb5780601f10612aa057610100808354040283529160200191612acb565b820191906000526020600020905b815481529060010190602001808311612aae57829003601f168201915b50505050509350612af8565b8180612ae290614839565b9250508080612af090614839565b9150506129e4565b5081612b39576040517f08c379a0000000000000000000000000000000000000000000000000000000008152600401612b3090614474565b60405180910390fd5b60001515600960003373ffffffffffffffffffffffffffffffffffffffff1673ffffffffffffffffffffffffffffffffffffffff168152602001908152602001600020600087815260200190815260200160002060009054906101000a900460ff16151514612bdd576040517f08c379a0000000000000000000000000000000000000000000000000000000008152600401612bd4906143f4565b60405180910390fd5b3373ffffffffffffffffffffffffffffffffffffffff16600b8281548110612c0857612c0761490f565b5b906000526020600020906007020160010160009054906101000a900473ffffffffffffffffffffffffffffffffffffffff1673ffffffffffffffffffffffffffffffffffffffff161415612c5b57600080fd5b6001600960003373ffffffffffffffffffffffffffffffffffffffff1673ffffffffffffffffffffffffffffffffffffffff168152602001908152602001600020600087815260200190815260200160002060006101000a81548160ff021916908315150217905550600b8181548110612cd857612cd761490f565b5b90600052602060002090600702016005016000815480929190612cfa90614839565b91905055507fead8052a59bd99f1b0115f4da8e862ebc15be06d11ad168b737b8e6dae0886c88333600b8481548110612d3657612d3561490f565b5b906000526020600020906007020160020160009054906101000a900473ffffffffffffffffffffffffffffffffffffffff16600b8581548110612d7c57612d7b61490f565b5b906000526020600020906007020160030154600b8681548110612da257612da161490f565b5b906000526020600020906007020160040154600b8781548110612dc857612dc761490f565b5b906000526020600020906007020160050154600b8881548110612dee57612ded61490f565b5b906000526020600020906007020160060154604051612e1397969594939291906142c4565b60405180910390a1600254600b8281548110612e3257612e3161490f565b5b9060005260206000209060070201600501541415612e5557612e548382612fd2565b5b5050505050565b80600760006101000a81548173ffffffffffffffffffffffffffffffffffffffff021916908373ffffffffffffffffffffffffffffffffffffffff16021790555050565b6000600760009054906101000a900473ffffffffffffffffffffffffffffffffffffffff1690508073ffffffffffffffffffffffffffffffffffffffff1663628bf69184846040518363ffffffff1660e01b8152600401612f029291906140f8565b600060405180830381600087803b158015612f1c57600080fd5b505af1158015612f30573d6000803e3d6000fd5b50505050505050565b6000600760009054906101000a900473ffffffffffffffffffffffffffffffffffffffff1690508073ffffffffffffffffffffffffffffffffffffffff1663269ae8b184846040518363ffffffff1660e01b8152600401612f9b9291906140f8565b600060405180830381600087803b158015612fb557600080fd5b505af1158015612fc9573d6000803e3d6000fd5b50505050505050565b600b8181548110612fe657612fe561490f565b5b90600052602060002090600702016003015460086000600b84815481106130105761300f61490f565b5b906000526020600020906007020160020160009054906101000a900473ffffffffffffffffffffffffffffffffffffffff1673ffffffffffffffffffffffffffffffffffffffff1673ffffffffffffffffffffffffffffffffffffffff1681526020019081526020016000208360405161308a91906140a3565b908152602001604051809103902060008282546130a79190614668565b925050819055506040518060400160405280600381526020017f455448000000000000000000000000000000000000000000000000000000000081525080519060200120828051906020012014156131af57600b818154811061310d5761310c61490f565b5b906000526020600020906007020160020160009054906101000a900473ffffffffffffffffffffffffffffffffffffffff1673ffffffffffffffffffffffffffffffffffffffff166108fc600b838154811061316c5761316b61490f565b5b9060005260206000209060070201600301549081150290604051600060405180830381858888f193505050501580156131a9573d6000803e3d6000fd5b506132e9565b600a826040516131bf91906140a3565b908152602001604051809103902060010160009054906101000a900473ffffffffffffffffffffffffffffffffffffffff1673ffffffffffffffffffffffffffffffffffffffff1663a9059cbb600b83815481106132205761321f61490f565b5b906000526020600020906007020160020160009054906101000a900473ffffffffffffffffffffffffffffffffffffffff16600b84815481106132665761326561490f565b5b9060005260206000209060070201600301546040518363ffffffff1660e01b81526004016132959291906140cf565b602060405180830381600087803b1580156132af57600080fd5b505af11580156132c3573d6000803e3d6000fd5b505050506040513d601f19601f820116820180604052508101906132e79190613917565b505b7fdeea4c72b502b4bd7dce3c793e57c46bb32f3b2f66613d54a765e7585f520a2c8233600b84815481106133205761331f61490f565b5b906000526020600020906007020160020160009054906101000a900473ffffffffffffffffffffffffffffffffffffffff16600b85815481106133665761336561490f565b5b906000526020600020906007020160030154600b868154811061338c5761338b61490f565b5b906000526020600020906007020160040154600b87815481106133b2576133b161490f565b5b906000526020600020906007020160050154600b88815481106133d8576133d761490f565b5b9060005260206000209060070201600601546040516133fd97969594939291906142c4565b60405180910390a1600b6001600b8054905061341991906146be565b8154811061342a5761342961490f565b5b9060005260206000209060070201600b828154811061344c5761344b61490f565b5b9060005260206000209060070201600082018160000190805461346e906147d6565b613479929190613620565b506001820160009054906101000a900473ffffffffffffffffffffffffffffffffffffffff168160010160006101000a81548173ffffffffffffffffffffffffffffffffffffffff021916908373ffffffffffffffffffffffffffffffffffffffff1602179055506002820160009054906101000a900473ffffffffffffffffffffffffffffffffffffffff168160020160006101000a81548173ffffffffffffffffffffffffffffffffffffffff021916908373ffffffffffffffffffffffffffffffffffffffff16021790555060038201548160030155600482015481600401556005820154816005015560068201548160060155905050600b805480613585576135846148e0565b5b6001900381819060005260206000209060070201600080820160006135aa91906136ad565b6001820160006101000a81549073ffffffffffffffffffffffffffffffffffffffff02191690556002820160006101000a81549073ffffffffffffffffffffffffffffffffffffffff02191690556003820160009055600482016000905560058201600090556006820160009055505090555050565b82805461362c906147d6565b90600052602060002090601f01602090048101928261364e576000855561369c565b82601f1061365f578054855561369c565b8280016001018555821561369c57600052602060002091601f016020900482015b8281111561369b578254825591600101919060010190613680565b5b5090506136a99190613773565b5090565b5080546136b9906147d6565b6000825580601f106136cb57506136ea565b601f0160209004906000526020600020908101906136e99190613773565b5b50565b8280546136f9906147d6565b90600052602060002090601f01602090048101928261371b5760008555613762565b82601f1061373457805160ff1916838001178555613762565b82800160010185558215613762579182015b82811115613761578251825591602001919060010190613746565b5b50905061376f9190613773565b5090565b5b8082111561378c576000816000905550600101613774565b5090565b60006137a361379e84614534565b61450f565b9050828152602081018484840111156137bf576137be614972565b5b6137ca848285614794565b509392505050565b60006137e56137e084614534565b61450f565b90508281526020810184848401111561380157613800614972565b5b61380c8482856147a3565b509392505050565b60008135905061382381614c3c565b92915050565b60008135905061383881614c53565b92915050565b60008151905061384d81614c6a565b92915050565b600082601f8301126138685761386761496d565b5b8135613878848260208601613790565b91505092915050565b600082601f8301126138965761389561496d565b5b81516138a68482602086016137d2565b91505092915050565b6000813590506138be81614c81565b92915050565b6000806000606084860312156138dd576138dc61497c565b5b60006138eb86828701613814565b93505060206138fc86828701613814565b925050604061390d86828701613814565b9150509250925092565b60006020828403121561392d5761392c61497c565b5b600061393b8482850161383e565b91505092915050565b60006020828403121561395a5761395961497c565b5b600082013567ffffffffffffffff81111561397857613977614977565b5b61398484828501613853565b91505092915050565b6000602082840312156139a3576139a261497c565b5b600082015167ffffffffffffffff8111156139c1576139c0614977565b5b6139cd84828501613881565b91505092915050565b600080604083850312156139ed576139ec61497c565b5b600083013567ffffffffffffffff811115613a0b57613a0a614977565b5b613a1785828601613853565b9250506020613a2885828601613814565b9150509250929050565b600080600060608486031215613a4b57613a4a61497c565b5b600084013567ffffffffffffffff811115613a6957613a68614977565b5b613a7586828701613853565b9350506020613a8686828701613829565b9250506040613a97868287016138af565b9150509250925092565b60008060408385031215613ab857613ab761497c565b5b600083013567ffffffffffffffff811115613ad657613ad5614977565b5b613ae285828601613853565b9250506020613af3858286016138af565b9150509250929050565b600060208284031215613b1357613b1261497c565b5b6000613b21848285016138af565b91505092915050565b6000613b368383613b88565b60208301905092915050565b6000613b4e8383613d8b565b905092915050565b6000613b628383613fd2565b905092915050565b613b738161474c565b82525050565b613b8281614704565b82525050565b613b91816146f2565b82525050565b613ba0816146f2565b82525050565b6000613bb1826145aa565b613bbb81856145fd565b9350613bc683614565565b8060005b83811015613bf7578151613bde8882613b2a565b9750613be9836145d6565b925050600181019050613bca565b5085935050505092915050565b6000613c0f826145b5565b613c19818561460e565b935083602082028501613c2b85614575565b8060005b85811015613c675784840389528151613c488582613b42565b9450613c53836145e3565b925060208a01995050600181019050613c2f565b50829750879550505050505092915050565b6000613c84826145c0565b613c8e818561461f565b935083602082028501613ca085614585565b8060005b85811015613cdc5784840389528151613cbd8582613b56565b9450613cc8836145f0565b925060208a01995050600181019050613ca4565b50829750879550505050505092915050565b613cf781614716565b82525050565b60008154613d0a816147d6565b613d148186614630565b94506001821660008114613d2f5760018114613d4057613d73565b60ff19831686528186019350613d73565b613d4985614595565b60005b83811015613d6b57815481890152600182019150602081019050613d4c565b838801955050505b50505092915050565b613d858161475e565b82525050565b6000613d96826145cb565b613da0818561463b565b9350613db08185602086016147a3565b613db981614981565b840191505092915050565b6000613dcf826145cb565b613dd9818561464c565b9350613de98185602086016147a3565b613df281614981565b840191505092915050565b6000613e08826145cb565b613e12818561465d565b9350613e228185602086016147a3565b80840191505092915050565b6000613e3b601c8361464c565b9150613e4682614992565b602082019050919050565b6000613e5e60268361464c565b9150613e69826149bb565b604082019050919050565b6000613e81601b8361464c565b9150613e8c82614a0a565b602082019050919050565b6000613ea460268361464c565b9150613eaf82614a33565b604082019050919050565b6000613ec760158361464c565b9150613ed282614a82565b602082019050919050565b6000613eea60198361464c565b9150613ef582614aab565b602082019050919050565b6000613f0d601b8361464c565b9150613f1882614ad4565b602082019050919050565b6000613f3060038361465d565b9150613f3b82614afd565b600382019050919050565b6000613f5360248361464c565b9150613f5e82614b26565b604082019050919050565b6000613f7660288361464c565b9150613f8182614b75565b604082019050919050565b6000613f99601f8361464c565b9150613fa482614bc4565b602082019050919050565b6000613fbc60298361464c565b9150613fc782614bed565b604082019050919050565b600060e0830160008301518482036000860152613fef8282613d8b565b91505060208301516140046020860182613b88565b5060408301516140176040860182613b79565b50606083015161402a606086018261406e565b50608083015161403d608086018261406e565b5060a083015161405060a086018261406e565b5060c083015161406360c086018261406e565b508091505092915050565b61407781614742565b82525050565b61408681614742565b82525050565b60006140988284613cfd565b915081905092915050565b60006140af8284613dfd565b915081905092915050565b60006140c582613f23565b9150819050919050565b60006040820190506140e46000830185613b6a565b6140f1602083018461407d565b9392505050565b600060408201905061410d6000830185613b97565b61411a6020830184613b97565b9392505050565b60006060820190506141366000830186613b97565b6141436020830185613b97565b614150604083018461407d565b949350505050565b600060808201905061416d6000830187613b97565b818103602083015261417f8186613dc4565b905061418e6040830185613b97565b61419b606083018461407d565b95945050505050565b60006040820190506141b96000830185613b97565b6141c6602083018461407d565b9392505050565b600060208201905081810360008301526141e78184613ba6565b905092915050565b600060208201905081810360008301526142098184613c04565b905092915050565b6000602082019050818103600083015261422b8184613c79565b905092915050565b60006020820190506142486000830184613cee565b92915050565b600060e0820190508181036000830152614268818a613dc4565b90506142776020830189613b97565b6142846040830188613b6a565b614291606083018761407d565b61429e608083018661407d565b6142ab60a0830185613d7c565b6142b860c083018461407d565b98975050505050505050565b600060e08201905081810360008301526142de818a613dc4565b90506142ed6020830189613b97565b6142fa6040830188613b6a565b614307606083018761407d565b614314608083018661407d565b61432160a083018561407d565b61432e60c083018461407d565b98975050505050505050565b600060a08201905081810360008301526143548188613dc4565b90506143636020830187613b97565b614370604083018661407d565b61437d606083018561407d565b61438a608083018461407d565b9695505050505050565b600060208201905081810360008301526143ad81613e2e565b9050919050565b600060208201905081810360008301526143cd81613e51565b9050919050565b600060208201905081810360008301526143ed81613e74565b9050919050565b6000602082019050818103600083015261440d81613e97565b9050919050565b6000602082019050818103600083015261442d81613eba565b9050919050565b6000602082019050818103600083015261444d81613edd565b9050919050565b6000602082019050818103600083015261446d81613f00565b9050919050565b6000602082019050818103600083015261448d81613f46565b9050919050565b600060208201905081810360008301526144ad81613f69565b9050919050565b600060208201905081810360008301526144cd81613f8c565b9050919050565b600060208201905081810360008301526144ed81613faf565b9050919050565b6000602082019050614509600083018461407d565b92915050565b600061451961452a565b90506145258282614808565b919050565b6000604051905090565b600067ffffffffffffffff82111561454f5761454e61493e565b5b61455882614981565b9050602081019050919050565b6000819050602082019050919050565b6000819050602082019050919050565b6000819050602082019050919050565b60008190508160005260206000209050919050565b600081519050919050565b600081519050919050565b600081519050919050565b600081519050919050565b6000602082019050919050565b6000602082019050919050565b6000602082019050919050565b600082825260208201905092915050565b600082825260208201905092915050565b600082825260208201905092915050565b600081905092915050565b600082825260208201905092915050565b600082825260208201905092915050565b600081905092915050565b600061467382614742565b915061467e83614742565b9250827fffffffffffffffffffffffffffffffffffffffffffffffffffffffffffffffff038211156146b3576146b2614882565b5b828201905092915050565b60006146c982614742565b91506146d483614742565b9250828210156146e7576146e6614882565b5b828203905092915050565b60006146fd82614722565b9050919050565b600061470f82614722565b9050919050565b60008115159050919050565b600073ffffffffffffffffffffffffffffffffffffffff82169050919050565b6000819050919050565b600061475782614770565b9050919050565b600061476982614742565b9050919050565b600061477b82614782565b9050919050565b600061478d82614722565b9050919050565b82818337600083830152505050565b60005b838110156147c15780820151818401526020810190506147a6565b838111156147d0576000848401525b50505050565b600060028204905060018216806147ee57607f821691505b60208210811415614802576148016148b1565b5b50919050565b61481182614981565b810181811067ffffffffffffffff821117156148305761482f61493e565b5b80604052505050565b600061484482614742565b91507fffffffffffffffffffffffffffffffffffffffffffffffffffffffffffffffff82141561487757614876614882565b5b600182019050919050565b7f4e487b7100000000000000000000000000000000000000000000000000000000600052601160045260246000fd5b7f4e487b7100000000000000000000000000000000000000000000000000000000600052602260045260246000fd5b7f4e487b7100000000000000000000000000000000000000000000000000000000600052603160045260246000fd5b7f4e487b7100000000000000000000000000000000000000000000000000000000600052603260045260246000fd5b7f4e487b7100000000000000000000000000000000000000000000000000000000600052604160045260246000fd5b600080fd5b600080fd5b600080fd5b600080fd5b6000601f19601f8301169050919050565b7f63616e6e6f74206465706f7369697420612063616c7565206f66203000000000600082015250565b7f696e737566666963656e742066756e647320746f20637265617465206120747260008201527f616e736665720000000000000000000000000000000000000000000000000000602082015250565b7f63616e6e6f7420616464206475706c696361746520746f6b656e730000000000600082015250565b7f63616e6e6f7420617070726f7665207468652073616d65207472616e7366657260008201527f2074776963650000000000000000000000000000000000000000000000000000602082015250565b7f746f6b656e20646f6573206e6f74206578697874730000000000000000000000600082015250565b7f77616c6c6574206f776e6572206e6f7420646574656374656400000000000000600082015250565b7f63616e6e6f7420616464206475706c6963617465206f776e6572730000000000600082015250565b7f4554480000000000000000000000000000000000000000000000000000000000600082015250565b7f6f6e6c7920746865207472616e736665722063726561746f722063616e20636160008201527f6e63656c00000000000000000000000000000000000000000000000000000000602082015250565b7f63616e6e6f74207472616e736665722066756e6473207769746869776e20746860008201527f652077616c6c6574000000000000000000000000000000000000000000000000602082015250565b7f7472616e73666572207265717565737420646f6573206e6f7420657869737400600082015250565b7f6f6e6c792077616c6c6574206f776e6572732063616e2063616c6c207468697360008201527f2066756e6374696f6e0000000000000000000000000000000000000000000000602082015250565b614c45816146f2565b8114614c5057600080fd5b50565b614c5c81614704565b8114614c6757600080fd5b50565b614c7381614716565b8114614c7e57600080fd5b50565b614c8a81614742565b8114614c9557600080fd5b5056fea26469706673582212205b059ca39583696ab1f662e815fc28faea5ec91430d814f593ba9be4370fd71164736f6c63430008070033a2646970667358221220e681cd8e1d5ee8a14a1908f6b5f9128b149133dbce81bdfca6e789cc8a237d6064736f6c63430008070033",
  "immutableReferences": {},
  "source": "pragma solidity 0.8.7;\r\n\r\nimport \"../node_modules/@openzeppelin/contracts/token/ERC20/ERC20.sol\";\r\nimport \"../node_modules/@openzeppelin/contracts/token/ERC20/IERC20.sol\";\r\n\r\ncontract MultiiSig {\r\n    \r\n    address mainOwner;\r\n    address[] walletowners;\r\n    uint limit;\r\n    uint depositId = 0;\r\n    uint withdrawalId = 0;\r\n    uint transferId = 0;\r\n    string[] tokenList;\r\n    address  multisigIntance;\r\n    \r\n    \r\n    constructor() {\r\n        \r\n        mainOwner = msg.sender;\r\n        walletowners.push(mainOwner);\r\n        limit = walletowners.length - 1;\r\n        tokenList.push(\"ETH\");\r\n        \r\n    }\r\n    \r\n    mapping(address => mapping(string => uint)) balance;\r\n    mapping(address => mapping(uint => bool)) approvals;\r\n    mapping(string => Token) tokenMapping;\r\n    \r\n    struct Token {\r\n        \r\n        string ticker;\r\n        address tokenAddress;\r\n    }\r\n    \r\n    struct Transfer {\r\n        \r\n        string ticker;\r\n        address sender;\r\n        address payable receiver;\r\n        uint amount;\r\n        uint id;\r\n        uint approvals;\r\n        uint timeOfTransaction;\r\n    }\r\n    \r\n    Transfer[] transferRequests;\r\n    \r\n    event walletOwnerAdded(address addedBy, address ownerAdded, uint timeOfTransaction);\r\n    event walletOwnerRemoved(address removedBy, address ownerRemoved, uint timeOfTransaction);\r\n    event fundsDeposited(string ticker, address sender, uint amount, uint depositId, uint timeOfTransaction);\r\n    event fundsWithdrawed(string ticker, address sender, uint amount, uint withdrawalId, uint timeOfTransaction);\r\n    event transferCreated(string ticker, address sender, address receiver, uint amount, uint id, uint approvals, uint timeOfTransaction);\r\n    event transferCancelled(string ticker, address sender, address receiver, uint amount, uint id, uint approvals, uint timeOfTransaction);\r\n    event transferApproved(string ticker, address sender, address receiver, uint amount, uint id, uint approvals, uint timeOfTransaction);\r\n    event fundsTransfered(string ticker, address sender, address receiver, uint amount, uint id, uint approvals, uint timeOfTransaction);\r\n    event tokenAdded(address addedBy, string ticker, address tokenAddress, uint timeOfTransaction);\r\n    \r\n    modifier onlyowners() {\r\n        \r\n       bool isOwner = false;\r\n       for (uint i = 0; i< walletowners.length; i++) {\r\n           \r\n           if (walletowners[i] == msg.sender) {\r\n               \r\n               isOwner = true;\r\n               break;\r\n           }\r\n       }\r\n       \r\n       require(isOwner == true, \"only wallet owners can call this function\");\r\n       _;\r\n        \r\n    }\r\n    \r\n    modifier tokenExists(string memory ticker) {\r\n        \r\n        if(keccak256(bytes(ticker)) != keccak256(bytes(\"ETH\"))) {\r\n            \r\n            require(tokenMapping[ticker].tokenAddress != address(0), \"token does not exixts\");\r\n        }\r\n        _;\r\n    }\r\n    \r\n    function addToken(string memory ticker, address _tokenAddress) public onlyowners {\r\n        \r\n        for (uint i = 0; i < tokenList.length; i++) {\r\n            \r\n            require(keccak256(bytes(tokenList[i])) != keccak256(bytes(ticker)), \"cannot add duplicate tokens\");\r\n        }\r\n        \r\n        require(keccak256(bytes(ERC20(_tokenAddress).symbol())) == keccak256(bytes(ticker)));\r\n        \r\n        tokenMapping[ticker] = Token(ticker, _tokenAddress);\r\n        \r\n        tokenList.push(ticker);\r\n        \r\n        emit tokenAdded(msg.sender, ticker, _tokenAddress, block.timestamp);\r\n    }\r\n    \r\n    \r\n    function setMultisigContractAdress(address walletAddress) private {\r\n        \r\n        multisigIntance = walletAddress;\r\n    }\r\n    \r\n    function callAddOwner(address owner, address multiSigContractInstance) private {\r\n        \r\n        MultiSigFactory factory = MultiSigFactory(multisigIntance);\r\n        factory.addNewWalletInstance(owner, multiSigContractInstance);\r\n    }\r\n    \r\n    function callRemoveOwner(address owner, address multiSigContractInstance) private {\r\n        \r\n        MultiSigFactory factory = MultiSigFactory(multisigIntance);\r\n        factory.removeNewWalletInstance(owner, multiSigContractInstance);\r\n    }\r\n   \r\n    \r\n    \r\n    \r\n    function addWalletOwner(address owner, address walletAddress, address _address) public onlyowners {\r\n        \r\n        \r\n       for (uint i = 0; i < walletowners.length; i++) {\r\n           \r\n           if(walletowners[i] == owner) {\r\n               \r\n               revert(\"cannot add duplicate owners\");\r\n           }\r\n       }\r\n        \r\n        walletowners.push(owner);\r\n        limit = walletowners.length - 1;\r\n        \r\n        emit walletOwnerAdded(msg.sender, owner, block.timestamp);\r\n        \r\n        setMultisigContractAdress(walletAddress);\r\n        callAddOwner(owner, _address);\r\n    }\r\n    \r\n    \r\n    function removeWalletOwner(address owner, address walletAddress, address _address) public onlyowners {\r\n        \r\n        bool hasBeenFound = false;\r\n        uint ownerIndex;\r\n        for (uint i = 0; i < walletowners.length; i++) {\r\n            \r\n            if(walletowners[i] == owner) {\r\n                \r\n                hasBeenFound = true;\r\n                ownerIndex = i;\r\n                break;\r\n            }\r\n        }\r\n        \r\n        require(hasBeenFound == true, \"wallet owner not detected\");\r\n        \r\n        walletowners[ownerIndex] = walletowners[walletowners.length - 1];\r\n        walletowners.pop();\r\n        limit = walletowners.length - 1;\r\n        \r\n         emit walletOwnerRemoved(msg.sender, owner, block.timestamp);\r\n         \r\n         setMultisigContractAdress(walletAddress);\r\n         callRemoveOwner(owner, _address);\r\n       \r\n    }\r\n    \r\n    function deposit(string memory ticker, uint amount) public payable onlyowners tokenExists(ticker) {\r\n        \r\n        require(balance[msg.sender][ticker] >= 0, \"cannot deposiit a calue of 0\");\r\n        \r\n        if(keccak256(bytes(ticker)) == keccak256(bytes(\"ETH\"))) {\r\n            \r\n            balance[msg.sender][\"ETH\"] += msg.value;\r\n            \r\n        }\r\n        \r\n        else {\r\n            \r\n            balance[msg.sender][ticker] += amount;\r\n            IERC20(tokenMapping[ticker].tokenAddress).transferFrom(msg.sender, address(this), amount);\r\n           \r\n        }\r\n        \r\n        emit fundsDeposited(ticker, msg.sender, msg.value, depositId, block.timestamp);\r\n         \r\n        depositId++;\r\n        \r\n    } \r\n    \r\n    \r\n    \r\n    function withdraw(string memory ticker, uint amount) public onlyowners tokenExists(ticker) {\r\n        \r\n        require(balance[msg.sender][ticker] >= amount);\r\n        \r\n        balance[msg.sender][ticker] -= amount;\r\n        \r\n        if(keccak256(bytes(ticker)) == keccak256(bytes(\"ETH\"))) {\r\n            \r\n            payable(msg.sender).transfer(amount);\r\n        }\r\n        \r\n        else {\r\n            \r\n            IERC20(tokenMapping[ticker].tokenAddress).transfer(msg.sender, amount);\r\n            \r\n        }\r\n        \r\n        emit fundsWithdrawed(ticker, msg.sender, amount, withdrawalId, block.timestamp);\r\n        \r\n        withdrawalId++;\r\n        \r\n    }\r\n    \r\n    function createTrnasferRequest(string memory ticker, address payable receiver, uint amount) public onlyowners tokenExists(ticker) {\r\n        \r\n        require(balance[msg.sender][ticker] >= amount, \"insufficent funds to create a transfer\");\r\n        \r\n        for (uint i = 0; i < walletowners.length; i++) {\r\n            \r\n            require(walletowners[i] != receiver, \"cannot transfer funds withiwn the wallet\");\r\n        }\r\n        \r\n        balance[msg.sender][ticker] -= amount;\r\n        transferRequests.push(Transfer(ticker, msg.sender, receiver, amount, transferId, 0, block.timestamp));\r\n        transferId++;\r\n        emit transferCreated(ticker, msg.sender, receiver, amount, transferId, 0, block.timestamp);\r\n    }\r\n    \r\n    function cancelTransferRequest(uint id) public onlyowners {\r\n        \r\n         string memory ticker = transferRequests[id].ticker;\r\n        bool hasBeenFound = false;\r\n        uint transferIndex = 0;\r\n        for (uint i = 0; i < transferRequests.length; i++) {\r\n            \r\n            if(transferRequests[i].id == id) {\r\n                \r\n                hasBeenFound = true;\r\n                break;\r\n               \r\n            }\r\n            \r\n             transferIndex++;\r\n        }\r\n        \r\n        require(transferRequests[transferIndex].sender == msg.sender, \"only the transfer creator can cancel\");\r\n        require(hasBeenFound, \"transfer request does not exist\");\r\n        \r\n        balance[msg.sender][ticker] += transferRequests[transferIndex].amount;\r\n        \r\n        transferRequests[transferIndex] = transferRequests[transferRequests.length - 1];\r\n        \r\n        emit transferCancelled(ticker, msg.sender, transferRequests[transferIndex].receiver, transferRequests[transferIndex].amount, transferRequests[transferIndex].id, transferRequests[transferIndex].approvals, transferRequests[transferIndex].timeOfTransaction);\r\n        transferRequests.pop();\r\n    }\r\n    \r\n    function approveTransferRequest(uint id) public onlyowners {\r\n        \r\n        string memory ticker;\r\n        bool hasBeenFound = false;\r\n        uint transferIndex = 0;\r\n        for (uint i = 0; i < transferRequests.length; i++) {\r\n            \r\n            if(transferRequests[i].id == id) {\r\n                \r\n                hasBeenFound = true;\r\n                ticker = transferRequests[transferIndex].ticker;\r\n                break;\r\n                \r\n            }\r\n            \r\n             transferIndex++;\r\n        }\r\n        \r\n        require(hasBeenFound, \"only the transfer creator can cancel\");\r\n        require(approvals[msg.sender][id] == false, \"cannot approve the same transfer twice\");\r\n        require(transferRequests[transferIndex].sender != msg.sender);\r\n        \r\n        approvals[msg.sender][id] = true;\r\n        transferRequests[transferIndex].approvals++;\r\n        \r\n        emit transferApproved(ticker, msg.sender, transferRequests[transferIndex].receiver, transferRequests[transferIndex].amount, transferRequests[transferIndex].id, transferRequests[transferIndex].approvals, transferRequests[transferIndex].timeOfTransaction);\r\n        \r\n        if (transferRequests[transferIndex].approvals == limit) {\r\n            \r\n            transferFunds(ticker, transferIndex);\r\n        }\r\n    }\r\n    \r\n    function transferFunds(string memory ticker, uint id) private {\r\n        \r\n        balance[transferRequests[id].receiver][ticker] += transferRequests[id].amount;\r\n        \r\n        if(keccak256(bytes(ticker)) == keccak256(bytes(\"ETH\"))) {\r\n            \r\n            transferRequests[id].receiver.transfer(transferRequests[id].amount);\r\n        }\r\n        else {\r\n            \r\n            IERC20(tokenMapping[ticker].tokenAddress).transfer(transferRequests[id].receiver, transferRequests[id].amount);\r\n        }\r\n       \r\n        \r\n        emit fundsTransfered(ticker, msg.sender, transferRequests[id].receiver, transferRequests[id].amount, transferRequests[id].id, transferRequests[id].approvals, transferRequests[id].timeOfTransaction);\r\n        \r\n        transferRequests[id] = transferRequests[transferRequests.length - 1];\r\n        transferRequests.pop();\r\n    }\r\n    \r\n    \r\n    function getApprovals(uint id) public view returns(bool) {\r\n        \r\n        return approvals[msg.sender][id];\r\n    }\r\n    \r\n    function getTransferRequests() public view returns(Transfer[] memory) {\r\n        \r\n        return transferRequests;\r\n    }\r\n    \r\n    function getBalance(string memory ticker) public view tokenExists(ticker) returns(uint) {\r\n        \r\n        return balance[msg.sender][ticker];\r\n    }\r\n    \r\n    function getApprovalLimit() public view returns (uint) {\r\n        \r\n        return limit;\r\n    }\r\n    \r\n     function getContractETHBalance() public view returns(uint) {\r\n        \r\n        return address(this).balance;\r\n    }\r\n    \r\n    function getContractERC20Balance(string memory ticker) public view tokenExists(ticker) returns(uint) {\r\n        \r\n        return balance[address(this)][ticker];\r\n    }\r\n    \r\n    function getWalletOwers() public view returns(address[] memory) {\r\n        \r\n        return walletowners;\r\n    }\r\n    \r\n    function getTokenList() public view returns(string[] memory) {\r\n        \r\n        return tokenList;\r\n    }\r\n   \r\n    \r\n}\r\n\r\n\r\n\r\n\r\n\r\ncontract MultiSigFactory {\r\n    \r\n    \r\n    struct UserWallets{\r\n        \r\n        address walletAddress;\r\n    }\r\n    \r\n    UserWallets[] userWallets;\r\n    MultiiSig[] multisigWalletIntances;\r\n    \r\n    mapping(address => UserWallets[]) ownersWallets;\r\n    \r\n    event WalletCreated(address createdBy, address newWalletContractAddress, uint timeOfTransaction);\r\n    \r\n    \r\n    function createNewWallet() public {\r\n        \r\n        MultiiSig newMultisigWalletContract = new MultiiSig();\r\n        multisigWalletIntances.push(newMultisigWalletContract);\r\n        \r\n        UserWallets[] storage newWallet = ownersWallets[msg.sender];\r\n        newWallet.push(UserWallets(address(newMultisigWalletContract)));\r\n        \r\n        emit WalletCreated(msg.sender, address(newMultisigWalletContract), block.timestamp);\r\n\r\n    }\r\n    \r\n    \r\n    function addNewWalletInstance(address owner, address walletAddress) public {\r\n        \r\n        UserWallets[] storage newWallet = ownersWallets[owner];\r\n        newWallet.push(UserWallets(walletAddress));\r\n        \r\n    }\r\n    \r\n    function removeNewWalletInstance(address _owner, address _walletAddress) public {\r\n        \r\n        UserWallets[] storage newWallet = ownersWallets[_owner];\r\n        \r\n        bool hasBeenFound = false;\r\n        uint walletIndex;\r\n        for (uint i = 0; i < newWallet.length; i++) {\r\n            \r\n            if(newWallet[i].walletAddress == _walletAddress) {\r\n                \r\n                hasBeenFound = true;\r\n                walletIndex = i;\r\n                break;\r\n            }\r\n            \r\n        }\r\n        \r\n        require(hasBeenFound, \"the owners does not own the wallet specified\");\r\n        \r\n        newWallet[walletIndex] = newWallet[newWallet.length - 1];\r\n        newWallet.pop();\r\n        \r\n        \r\n    }\r\n    \r\n    \r\n    function getOwnerWallets(address owner) public view returns(UserWallets[] memory) {\r\n        \r\n        return ownersWallets[owner];\r\n    }\r\n    \r\n    \r\n    \r\n}",
  "sourcePath": "C:\\Users\\mcgra\\OneDrive\\Documents\\YoutubeVideos\\EthereumMultiSigWalletVideos\\MultisigWalletProject\\Backend\\contracts\\Multisig.sol",
  "compiler": {
    "name": "solc",
    "version": "0.8.7+commit.e28d00a7.Emscripten.clang"
  },
  "schemaVersion": "3.4.3",
  "updatedAt": "2021-11-29T18:25:19.248Z",
  "networkType": "ethereum",
  "devdoc": {
    "kind": "dev",
    "methods": {},
    "version": 1
  },
  "userdoc": {
    "kind": "user",
    "methods": {},
    "version": 1
  }
}